{
  "_format": "hh-sol-artifact-1",
  "contractName": "CircularMarketplace",
  "sourceName": "contracts/reval.sol",
  "abi": [
    {
      "anonymous": false,
      "inputs": [
        {
          "indexed": false,
          "internalType": "uint256",
          "name": "id",
          "type": "uint256"
        },
        {
          "indexed": false,
          "internalType": "string",
          "name": "name",
          "type": "string"
        },
        {
          "indexed": false,
          "internalType": "uint256",
          "name": "price",
          "type": "uint256"
        },
        {
          "indexed": false,
          "internalType": "address",
          "name": "owner",
          "type": "address"
        }
      ],
      "name": "ItemCreated",
      "type": "event"
    },
    {
      "anonymous": false,
      "inputs": [
        {
          "indexed": false,
          "internalType": "uint256",
          "name": "id",
          "type": "uint256"
        },
        {
          "indexed": false,
          "internalType": "address",
          "name": "from",
          "type": "address"
        },
        {
          "indexed": false,
          "internalType": "address",
          "name": "to",
          "type": "address"
        },
        {
          "indexed": false,
          "internalType": "uint256",
          "name": "price",
          "type": "uint256"
        }
      ],
      "name": "ItemTransferred",
      "type": "event"
    },
    {
      "anonymous": false,
      "inputs": [
        {
          "indexed": false,
          "internalType": "uint256",
          "name": "id",
          "type": "uint256"
        },
        {
          "indexed": false,
          "internalType": "string",
          "name": "description",
          "type": "string"
        },
        {
          "indexed": false,
          "internalType": "uint256",
          "name": "price",
          "type": "uint256"
        }
      ],
      "name": "ItemUpdated",
      "type": "event"
    },
    {
      "inputs": [
        {
          "internalType": "string",
          "name": "name",
          "type": "string"
        },
        {
          "internalType": "string",
          "name": "description",
          "type": "string"
        },
        {
          "internalType": "string[]",
          "name": "imageUrls",
          "type": "string[]"
        },
        {
          "internalType": "string",
          "name": "billUrl",
          "type": "string"
        },
        {
          "internalType": "uint256",
          "name": "price",
          "type": "uint256"
        }
      ],
      "name": "createItem",
      "outputs": [],
      "stateMutability": "nonpayable",
      "type": "function"
    },
    {
      "inputs": [
        {
          "internalType": "uint256",
          "name": "itemId",
          "type": "uint256"
        }
      ],
      "name": "delistItem",
      "outputs": [],
      "stateMutability": "nonpayable",
      "type": "function"
    },
    {
      "inputs": [
        {
          "internalType": "uint256",
          "name": "itemId",
          "type": "uint256"
        }
      ],
      "name": "getItemHistory",
      "outputs": [
        {
          "components": [
            {
              "internalType": "uint256",
              "name": "itemId",
              "type": "uint256"
            },
            {
              "internalType": "address",
              "name": "seller",
              "type": "address"
            },
            {
              "internalType": "address",
              "name": "buyer",
              "type": "address"
            },
            {
              "internalType": "uint256",
              "name": "price",
              "type": "uint256"
            },
            {
              "internalType": "uint256",
              "name": "timestamp",
              "type": "uint256"
            }
          ],
          "internalType": "struct CircularMarketplace.Transaction[]",
          "name": "",
          "type": "tuple[]"
        }
      ],
      "stateMutability": "view",
      "type": "function"
    },
    {
      "inputs": [],
      "name": "itemCount",
      "outputs": [
        {
          "internalType": "uint256",
          "name": "",
          "type": "uint256"
        }
      ],
      "stateMutability": "view",
      "type": "function"
    },
    {
      "inputs": [
        {
          "internalType": "uint256",
          "name": "",
          "type": "uint256"
        },
        {
          "internalType": "uint256",
          "name": "",
          "type": "uint256"
        }
      ],
      "name": "itemTransactions",
      "outputs": [
        {
          "internalType": "uint256",
          "name": "itemId",
          "type": "uint256"
        },
        {
          "internalType": "address",
          "name": "seller",
          "type": "address"
        },
        {
          "internalType": "address",
          "name": "buyer",
          "type": "address"
        },
        {
          "internalType": "uint256",
          "name": "price",
          "type": "uint256"
        },
        {
          "internalType": "uint256",
          "name": "timestamp",
          "type": "uint256"
        }
      ],
      "stateMutability": "view",
      "type": "function"
    },
    {
      "inputs": [
        {
          "internalType": "uint256",
          "name": "",
          "type": "uint256"
        }
      ],
      "name": "items",
      "outputs": [
        {
          "internalType": "uint256",
          "name": "id",
          "type": "uint256"
        },
        {
          "internalType": "string",
          "name": "name",
          "type": "string"
        },
        {
          "internalType": "string",
          "name": "description",
          "type": "string"
        },
        {
          "internalType": "string",
          "name": "billUrl",
          "type": "string"
        },
        {
          "internalType": "uint256",
          "name": "price",
          "type": "uint256"
        },
        {
          "internalType": "address",
          "name": "currentOwner",
          "type": "address"
        },
        {
          "internalType": "bool",
          "name": "isListed",
          "type": "bool"
        }
      ],
      "stateMutability": "view",
      "type": "function"
    },
    {
      "inputs": [
        {
          "internalType": "uint256",
          "name": "itemId",
          "type": "uint256"
        }
      ],
      "name": "listItem",
      "outputs": [],
      "stateMutability": "nonpayable",
      "type": "function"
    },
    {
      "inputs": [
        {
          "internalType": "uint256",
          "name": "itemId",
          "type": "uint256"
        },
        {
          "internalType": "address",
          "name": "to",
          "type": "address"
        }
      ],
      "name": "transferItem",
      "outputs": [],
      "stateMutability": "payable",
      "type": "function"
    },
    {
      "inputs": [
        {
          "internalType": "uint256",
          "name": "itemId",
          "type": "uint256"
        },
        {
          "internalType": "string",
          "name": "newDescription",
          "type": "string"
        },
        {
          "internalType": "uint256",
          "name": "newPrice",
          "type": "uint256"
        },
        {
          "internalType": "string[]",
          "name": "newImages",
          "type": "string[]"
        }
      ],
      "name": "updateItem",
      "outputs": [],
      "stateMutability": "nonpayable",
      "type": "function"
    }
  ],
  "bytecode": "0x6080604052348015600f57600080fd5b50611d1e8061001f6000396000f3fe6080604052600436106100865760003560e01c8063a422910111610059578063a422910114610145578063a4f0bbb714610161578063bfb231d2146101a2578063c5e857ad146101e5578063cc16b17b1461020e57610086565b8063100616311461008b5780632ce38190146100b457806366c64e51146100dd5780636bfb0d011461011a575b600080fd5b34801561009757600080fd5b506100b260048036038101906100ad9190610fbe565b610237565b005b3480156100c057600080fd5b506100db60048036038101906100d69190610fbe565b61030d565b005b3480156100e957600080fd5b5061010460048036038101906100ff9190610fbe565b6103e3565b6040516101119190611152565b60405180910390f35b34801561012657600080fd5b5061012f61051f565b60405161013c9190611183565b60405180910390f35b61015f600480360381019061015a91906111ca565b610525565b005b34801561016d57600080fd5b506101886004803603810190610183919061120a565b61090f565b604051610199959493929190611259565b60405180910390f35b3480156101ae57600080fd5b506101c960048036038101906101c49190610fbe565b6109a2565b6040516101dc9796959493929190611357565b60405180910390f35b3480156101f157600080fd5b5061020c600480360381019061020791906115f6565b610ba9565b005b34801561021a57600080fd5b5061023560048036038101906102309190611695565b610cf6565b005b803373ffffffffffffffffffffffffffffffffffffffff1660008083815260200190815260200160002060060160009054906101000a900473ffffffffffffffffffffffffffffffffffffffff1673ffffffffffffffffffffffffffffffffffffffff16146102db576040517f08c379a00000000000000000000000000000000000000000000000000000000081526004016102d2906117cc565b60405180910390fd5b600080600084815260200190815260200160002060060160146101000a81548160ff0219169083151502179055505050565b803373ffffffffffffffffffffffffffffffffffffffff1660008083815260200190815260200160002060060160009054906101000a900473ffffffffffffffffffffffffffffffffffffffff1673ffffffffffffffffffffffffffffffffffffffff16146103b1576040517f08c379a00000000000000000000000000000000000000000000000000000000081526004016103a8906117cc565b60405180910390fd5b600160008084815260200190815260200160002060060160146101000a81548160ff0219169083151502179055505050565b606060016000838152602001908152602001600020805480602002602001604051908101604052809291908181526020016000905b8282101561051457838290600052602060002090600502016040518060a0016040529081600082015481526020016001820160009054906101000a900473ffffffffffffffffffffffffffffffffffffffff1673ffffffffffffffffffffffffffffffffffffffff1673ffffffffffffffffffffffffffffffffffffffff1681526020016002820160009054906101000a900473ffffffffffffffffffffffffffffffffffffffff1673ffffffffffffffffffffffffffffffffffffffff1673ffffffffffffffffffffffffffffffffffffffff1681526020016003820154815260200160048201548152505081526020019060010190610418565b505050509050919050565b60025481565b813373ffffffffffffffffffffffffffffffffffffffff1660008083815260200190815260200160002060060160009054906101000a900473ffffffffffffffffffffffffffffffffffffffff1673ffffffffffffffffffffffffffffffffffffffff16146105c9576040517f08c379a00000000000000000000000000000000000000000000000000000000081526004016105c0906117cc565b60405180910390fd5b600073ffffffffffffffffffffffffffffffffffffffff168273ffffffffffffffffffffffffffffffffffffffff1603610638576040517f08c379a000000000000000000000000000000000000000000000000000000000815260040161062f90611838565b60405180910390fd5b60008084815260200190815260200160002060050154341015610690576040517f08c379a0000000000000000000000000000000000000000000000000000000008152600401610687906118a4565b60405180910390fd5b600080600085815260200190815260200160002060060160009054906101000a900473ffffffffffffffffffffffffffffffffffffffff1690508260008086815260200190815260200160002060060160006101000a81548173ffffffffffffffffffffffffffffffffffffffff021916908373ffffffffffffffffffffffffffffffffffffffff160217905550600160008581526020019081526020016000206040518060a001604052808681526020018373ffffffffffffffffffffffffffffffffffffffff1681526020018573ffffffffffffffffffffffffffffffffffffffff1681526020016000808881526020019081526020016000206005015481526020014281525090806001815401808255809150506001900390600052602060002090600502016000909190919091506000820151816000015560208201518160010160006101000a81548173ffffffffffffffffffffffffffffffffffffffff021916908373ffffffffffffffffffffffffffffffffffffffff16021790555060408201518160020160006101000a81548173ffffffffffffffffffffffffffffffffffffffff021916908373ffffffffffffffffffffffffffffffffffffffff160217905550606082015181600301556080820151816004015550508073ffffffffffffffffffffffffffffffffffffffff166108fc349081150290604051600060405180830381858888f193505050501580156108b6573d6000803e3d6000fd5b507fa878aff89f953a37d6f49daca7e239720fc2b866aa8741ac66a8117c0de02ef88482856000808981526020019081526020016000206005015460405161090194939291906118c4565b60405180910390a150505050565b6001602052816000526040600020818154811061092b57600080fd5b9060005260206000209060050201600091509150508060000154908060010160009054906101000a900473ffffffffffffffffffffffffffffffffffffffff16908060020160009054906101000a900473ffffffffffffffffffffffffffffffffffffffff16908060030154908060040154905085565b60006020528060005260406000206000915090508060000154908060010180546109cb90611938565b80601f01602080910402602001604051908101604052809291908181526020018280546109f790611938565b8015610a445780601f10610a1957610100808354040283529160200191610a44565b820191906000526020600020905b815481529060010190602001808311610a2757829003601f168201915b505050505090806002018054610a5990611938565b80601f0160208091040260200160405190810160405280929190818152602001828054610a8590611938565b8015610ad25780601f10610aa757610100808354040283529160200191610ad2565b820191906000526020600020905b815481529060010190602001808311610ab557829003601f168201915b505050505090806004018054610ae790611938565b80601f0160208091040260200160405190810160405280929190818152602001828054610b1390611938565b8015610b605780601f10610b3557610100808354040283529160200191610b60565b820191906000526020600020905b815481529060010190602001808311610b4357829003601f168201915b5050505050908060050154908060060160009054906101000a900473ffffffffffffffffffffffffffffffffffffffff16908060060160149054906101000a900460ff16905087565b833373ffffffffffffffffffffffffffffffffffffffff1660008083815260200190815260200160002060060160009054906101000a900473ffffffffffffffffffffffffffffffffffffffff1673ffffffffffffffffffffffffffffffffffffffff1614610c4d576040517f08c379a0000000000000000000000000000000000000000000000000000000008152600401610c44906117cc565b60405180910390fd5b836000808781526020019081526020016000206002019081610c6f9190611b15565b508260008087815260200190815260200160002060050181905550816000808781526020019081526020016000206003019080519060200190610cb3929190610e9a565b507f607557a00b0ef90bc9c8e9453cb94c555e187555e111468cd2cb2be930fc1615858585604051610ce793929190611be7565b60405180910390a15050505050565b60026000815480929190610d0990611c54565b919050555060405180610100016040528060025481526020018681526020018581526020018481526020018381526020018281526020013373ffffffffffffffffffffffffffffffffffffffff168152602001600015158152506000806002548152602001908152602001600020600082015181600001556020820151816001019081610d969190611b15565b506040820151816002019081610dac9190611b15565b506060820151816003019080519060200190610dc9929190610e9a565b506080820151816004019081610ddf9190611b15565b5060a0820151816005015560c08201518160060160006101000a81548173ffffffffffffffffffffffffffffffffffffffff021916908373ffffffffffffffffffffffffffffffffffffffff16021790555060e08201518160060160146101000a81548160ff0219169083151502179055509050507f4f7f943ede3f118d52f137992d1d5e5f5723aac6037c6b8814b8432f44ed05a1600254868333604051610e8b9493929190611c9c565b60405180910390a15050505050565b828054828255906000526020600020908101928215610ee2579160200282015b82811115610ee1578251829081610ed19190611b15565b5091602001919060010190610eba565b5b509050610eef9190610ef3565b5090565b5b80821115610f135760008181610f0a9190610f17565b50600101610ef4565b5090565b508054610f2390611938565b6000825580601f10610f355750610f54565b601f016020900490600052602060002090810190610f539190610f57565b5b50565b5b80821115610f70576000816000905550600101610f58565b5090565b6000604051905090565b600080fd5b600080fd5b6000819050919050565b610f9b81610f88565b8114610fa657600080fd5b50565b600081359050610fb881610f92565b92915050565b600060208284031215610fd457610fd3610f7e565b5b6000610fe284828501610fa9565b91505092915050565b600081519050919050565b600082825260208201905092915050565b6000819050602082019050919050565b61102081610f88565b82525050565b600073ffffffffffffffffffffffffffffffffffffffff82169050919050565b600061105182611026565b9050919050565b61106181611046565b82525050565b60a08201600082015161107d6000850182611017565b5060208201516110906020850182611058565b5060408201516110a36040850182611058565b5060608201516110b66060850182611017565b5060808201516110c96080850182611017565b50505050565b60006110db8383611067565b60a08301905092915050565b6000602082019050919050565b60006110ff82610feb565b6111098185610ff6565b935061111483611007565b8060005b8381101561114557815161112c88826110cf565b9750611137836110e7565b925050600181019050611118565b5085935050505092915050565b6000602082019050818103600083015261116c81846110f4565b905092915050565b61117d81610f88565b82525050565b60006020820190506111986000830184611174565b92915050565b6111a781611046565b81146111b257600080fd5b50565b6000813590506111c48161119e565b92915050565b600080604083850312156111e1576111e0610f7e565b5b60006111ef85828601610fa9565b9250506020611200858286016111b5565b9150509250929050565b6000806040838503121561122157611220610f7e565b5b600061122f85828601610fa9565b925050602061124085828601610fa9565b9150509250929050565b61125381611046565b82525050565b600060a08201905061126e6000830188611174565b61127b602083018761124a565b611288604083018661124a565b6112956060830185611174565b6112a26080830184611174565b9695505050505050565b600081519050919050565b600082825260208201905092915050565b60005b838110156112e65780820151818401526020810190506112cb565b60008484015250505050565b6000601f19601f8301169050919050565b600061130e826112ac565b61131881856112b7565b93506113288185602086016112c8565b611331816112f2565b840191505092915050565b60008115159050919050565b6113518161133c565b82525050565b600060e08201905061136c600083018a611174565b818103602083015261137e8189611303565b905081810360408301526113928188611303565b905081810360608301526113a68187611303565b90506113b56080830186611174565b6113c260a083018561124a565b6113cf60c0830184611348565b98975050505050505050565b600080fd5b600080fd5b7f4e487b7100000000000000000000000000000000000000000000000000000000600052604160045260246000fd5b61141d826112f2565b810181811067ffffffffffffffff8211171561143c5761143b6113e5565b5b80604052505050565b600061144f610f74565b905061145b8282611414565b919050565b600067ffffffffffffffff82111561147b5761147a6113e5565b5b611484826112f2565b9050602081019050919050565b82818337600083830152505050565b60006114b36114ae84611460565b611445565b9050828152602081018484840111156114cf576114ce6113e0565b5b6114da848285611491565b509392505050565b600082601f8301126114f7576114f66113db565b5b81356115078482602086016114a0565b91505092915050565b600067ffffffffffffffff82111561152b5761152a6113e5565b5b602082029050602081019050919050565b600080fd5b600061155461154f84611510565b611445565b905080838252602082019050602084028301858111156115775761157661153c565b5b835b818110156115be57803567ffffffffffffffff81111561159c5761159b6113db565b5b8086016115a989826114e2565b85526020850194505050602081019050611579565b5050509392505050565b600082601f8301126115dd576115dc6113db565b5b81356115ed848260208601611541565b91505092915050565b600080600080608085870312156116105761160f610f7e565b5b600061161e87828801610fa9565b945050602085013567ffffffffffffffff81111561163f5761163e610f83565b5b61164b878288016114e2565b935050604061165c87828801610fa9565b925050606085013567ffffffffffffffff81111561167d5761167c610f83565b5b611689878288016115c8565b91505092959194509250565b600080600080600060a086880312156116b1576116b0610f7e565b5b600086013567ffffffffffffffff8111156116cf576116ce610f83565b5b6116db888289016114e2565b955050602086013567ffffffffffffffff8111156116fc576116fb610f83565b5b611708888289016114e2565b945050604086013567ffffffffffffffff81111561172957611728610f83565b5b611735888289016115c8565b935050606086013567ffffffffffffffff81111561175657611755610f83565b5b611762888289016114e2565b925050608061177388828901610fa9565b9150509295509295909350565b7f4e6f7420746865206f776e657200000000000000000000000000000000000000600082015250565b60006117b6600d836112b7565b91506117c182611780565b602082019050919050565b600060208201905081810360008301526117e5816117a9565b9050919050565b7f496e76616c696420616464726573730000000000000000000000000000000000600082015250565b6000611822600f836112b7565b915061182d826117ec565b602082019050919050565b6000602082019050818103600083015261185181611815565b9050919050565b7f496e73756666696369656e74207061796d656e74000000000000000000000000600082015250565b600061188e6014836112b7565b915061189982611858565b602082019050919050565b600060208201905081810360008301526118bd81611881565b9050919050565b60006080820190506118d96000830187611174565b6118e6602083018661124a565b6118f3604083018561124a565b6119006060830184611174565b95945050505050565b7f4e487b7100000000000000000000000000000000000000000000000000000000600052602260045260246000fd5b6000600282049050600182168061195057607f821691505b60208210810361196357611962611909565b5b50919050565b60008190508160005260206000209050919050565b60006020601f8301049050919050565b600082821b905092915050565b6000600883026119cb7fffffffffffffffffffffffffffffffffffffffffffffffffffffffffffffffff8261198e565b6119d5868361198e565b95508019841693508086168417925050509392505050565b6000819050919050565b6000611a12611a0d611a0884610f88565b6119ed565b610f88565b9050919050565b6000819050919050565b611a2c836119f7565b611a40611a3882611a19565b84845461199b565b825550505050565b600090565b611a55611a48565b611a60818484611a23565b505050565b5b81811015611a8457611a79600082611a4d565b600181019050611a66565b5050565b601f821115611ac957611a9a81611969565b611aa38461197e565b81016020851015611ab2578190505b611ac6611abe8561197e565b830182611a65565b50505b505050565b600082821c905092915050565b6000611aec60001984600802611ace565b1980831691505092915050565b6000611b058383611adb565b9150826002028217905092915050565b611b1e826112ac565b67ffffffffffffffff811115611b3757611b366113e5565b5b611b418254611938565b611b4c828285611a88565b600060209050601f831160018114611b7f5760008415611b6d578287015190505b611b778582611af9565b865550611bdf565b601f198416611b8d86611969565b60005b82811015611bb557848901518255600182019150602085019450602081019050611b90565b86831015611bd25784890151611bce601f891682611adb565b8355505b6001600288020188555050505b505050505050565b6000606082019050611bfc6000830186611174565b8181036020830152611c0e8185611303565b9050611c1d6040830184611174565b949350505050565b7f4e487b7100000000000000000000000000000000000000000000000000000000600052601160045260246000fd5b6000611c5f82610f88565b91507fffffffffffffffffffffffffffffffffffffffffffffffffffffffffffffffff8203611c9157611c90611c25565b5b600182019050919050565b6000608082019050611cb16000830187611174565b8181036020830152611cc38186611303565b9050611cd26040830185611174565b611cdf606083018461124a565b9594505050505056fea26469706673582212208f43401a03347a1edaa8802d5a9d439d8d615cd108a44f6d118b63906f6569b964736f6c634300081c0033",
  "linkReferences": {},
  "deployedLinkReferences": {}
}